:1000000019C033C032C031C030C02FC031C02DC084
:100010002CC02BC02AC029C028C027C026C025C09C
:1000200024C023C022C021C020C01FC01EC01DC0CC
:100030001CC029C411241FBECFEFCDBFDFE3DEBF3C
:100040001EE3A0E0BEE3E9E9F1E102C005900D92F4
:10005000A030B107D9F72EE3A0E0BEE301C01D92A6
:10006000A333B207E1F71CD08AC8CACF06D40895DB
:100070001F920F920FB60F9211248F938091023E20
:100080008F5F8093023E81E08093013E8093003E2B
:10009000809343018F910F900FBE0F901F90189582
:1000A000E5DF74D183D2B4D28091293E863061F0ED
:1000B00080912A3E883041F0E9E2FEE386E08083C9
:1000C00088E08183128213828091243E863071F011
:1000D0008091253E883051F0E4E2FEE386E08083A3
:1000E00088E0818381E08283838314828BE07DD3E7
:1000F00086E490E02CD480930C3E8F3F19F481E08D
:100100008093053E8091053E811160D4C12CD12C95
:10011000760180910C3E813009F047C02FEFC21A62
:10012000D20AE20AF20A80E5C81683ECD806E10496
:10013000F10458F081E080930E3E0F2EF0E5CF2EB3
:10014000F3ECDF2EE12CF12CF02D80910E3E882374
:1001500011F097D27FD180910F3E9091103EA091E7
:10016000113EB091123E0196A11DB11D80930F3E2C
:100170009093103EA093113EB093123E893B9B405A
:10018000A105B10508F4D4C010920F3E1092103EA4
:100190001092113E1092123E8091480190914901B7
:1001A00080932B3E90932C3EC3C08F3F09F0C0C07C
:1001B00020914801309149018091093E90910A3E79
:1001C0002817390709F457C08091480190914901D7
:1001D0008093093E90930A3E8091073E9091083E9D
:1001E00001968093073E9093083E8091063E91E0F1
:1001F000980F9093063E81508230E8F441E064E02D
:1002000080E0D7D041E065E080E0D3D041E066E017
:1002100080E0CFD041E067E080E0CBD041E063E018
:1002200081E0C7D041E062E081E0C3D040E060E01F
:1002300081E0BFD020C09430F0F01092063E41E043
:1002400060E081E0B6D040E064E080E0B2D040E021
:1002500065E080E0AED040E066E080E0AAD040E01B
:1002600067E080E0A6D040E063E081E0A2D040E01B
:1002700062E081E09ED08091073E9091083E8032FE
:100280009C4168F081E080930C3E1092073E1092F2
:10029000083E61E086E490E07DD33CD149C061E056
:1002A00081E0C0D1811142C080910D3E8F5F80936B
:1002B0000D3E10920B3E1092153E32C02091480127
:1002C000309149018091033E9091043E28173907EF
:1002D00069F080910B3E8F5F80930B3E80914801C7
:1002E000909149018093033E9093043E80910B3E90
:1002F0008530A8F080910D3E853078F010920D3E4B
:1003000081E080930C3E1092073E1092083E61E01F
:1003100086E490E03FD3FED002C010920D3EA89537
:1003200061E081E07FD1882349F202C010920B3E48
:100330006DE07EE386E19EE35FD2A895EACE81116F
:100340000BC020B181E090E002C0880F991F6A9530
:10035000E2F7822B80B90895813059F424B181E00D
:1003600090E002C0880F991F6A95E2F7822B84B94A
:100370000895823051F428B181E090E002C0880FE6
:10038000991F6A95E2F7822B88B9089566E080E0AC
:10039000D6DF67E080E0D3DF63E081E0D0DF62E0BA
:1003A00081E0CDDF64E080E0CADF65E080E0C7DFA8
:1003B0000895811119C040FF0BC021B181E090E088
:1003C00002C0880F991F6A95E2F7822B81B90895C0
:1003D00021B181E090E002C0880F991F6A95E2F791
:1003E0008095822381B908958130C9F440FF0BC004
:1003F00025B181E090E002C0880F991F6A95E2F76D
:10040000822B85B9089525B181E090E002C0880F64
:10041000991F6A95E2F78095822385B90895823005
:10042000C1F440FF0BC029B181E090E002C0880F09
:10043000991F6A95E2F7822B89B9089529B181E065
:1004400090E002C0880F991F6A95E2F78095822399
:1004500089B90895E4E2FEE3828183839481891758
:10046000D1F08093283E811116C0E9E2FEE383813A
:100470008F9382818F9382E891E99F938F93B3D377
:10048000A5D285E090E080934801909349010F90B8
:100490000F900F900F908091263E8823C9F0809195
:1004A0001A3E882381F080911B3E882329F040E08A
:1004B00060E081E07EDF089581112BC041E060E0C3
:1004C00081E077DF089540E060E081E072DF089529
:1004D00081111FC08091003E882371F080E197E276
:1004E00080932B3E90932C3E40E060E081E061DF02
:1004F00081E08093263E089580911A3E882329F05A
:1005000041E060E081E055DF089540E060E081E097
:1005100050DF08951F93CF93DF9310E041C040E078
:1005200064E080E046DF40E065E080E042DF40E0FC
:1005300066E080E03EDF40E067E080E03ADF40E0F8
:1005400063E081E036DF40E062E081E032DF219667
:1005500002C0C0E0D0E0C03D87E0D80700F3C0E0B3
:10056000D0E019C041E064E080E023DF41E065E0D5
:1005700080E01FDF41E066E080E01BDF41E067E0F4
:1005800080E017DF41E063E081E013DF41E062E0FB
:1005900081E00FDF2196C03D87E0D80718F31F5F89
:1005A0001530B8F2DF91CF911F91089560E081E09E
:1005B000C6DE40E060E081E0FCDE089581110CC001
:1005C00020B181E090E002C0880F991F6A95E2F7A0
:1005D0008095822380B90895813061F424B181E04F
:1005E00090E002C0880F991F6A95E2F780958223F8
:1005F00084B90895823059F428B181E090E002C0B6
:10060000880F991F6A95E2F78095822388B908952B
:1006100061E081E0D3DF61E080E0D0DF61E080E095
:10062000CDDF089581110BC082B190E002C0959595
:1006300087956A95E2F780FF1CC081E008958130BC
:1006400059F486B190E002C0959587956A95E2F7D6
:1006500080FF11C081E00895823079F48AB190E082
:1006600002C0959587956A95E2F780FF08C081E002
:10067000089580E0089580E0089581E0089580E085
:10068000089561E081E0CEDF81115DC08091163E6A
:100690008F5F8093163E1092193E1092153E40C017
:1006A00020914801309149018091173E9091183E68
:1006B0002817390769F08091193E8F5F8093193EA2
:1006C00080914801909149018093173E9093183E84
:1006D00061E081E0A7DF811120C08091193E853063
:1006E000F0F08091163E8530A8F080910C3E81306C
:1006F00019F48FEF80930C3E1092073E1092083E43
:1007000060910C3E70E086E490E044D103DF1092EB
:10071000163E05C01092163E02C01092193EA895D2
:1007200061E081E07FDF882309F4BACF1092003EB8
:100730008091263E882319F01092263E06C081E063
:100740008093263E02C01092193E80910C3E81306B
:1007500009F04AC08091263E882349F040E064E0D9
:1007600080E027DE41E065E080E023DE08C041E074
:1007700064E080E01EDE40E065E080E01ADE61E0DB
:1007800080E050DF882361F081E080931B3E40E0F1
:1007900066E080E00EDE41E067E080E00ADE0AC04D
:1007A00010921B3E41E066E080E003DE40E067E03F
:1007B00080E0FFDD62E080E035DF882359F081E0F2
:1007C00080931A3E40E063E0F4DD41E062E081E0C6
:1007D000F0DD089510921A3E41E063E081E0E9DD2A
:1007E00040E062E081E0E5DD0895682F70E080E0A0
:1007F00091E08ED480E00895FC0140914801509131
:1008000049012091133E3091143E42175307A1F045
:1008100020914801309149012093133E3093143EBA
:100820009091153E9F5F9093153E90FD05C01082FC
:10083000FB0110821092153E089580E0089580E03B
:100840000895789480E0089580E008C0E82FF0E0F3
:10085000E05FFB4F9081986090838F5F8830B0F3AA
:1008600080E008C0E82FF0E0E05DFB4F90819860E9
:1008700090838F5F8830B0F30895E6DFE0DFE1DF3B
:10088000BED0DBDF08951F920F920FB60F92112496
:100890002F933F934F935F936F937F938F939F9388
:1008A000AF93BF93CF93DF93EF93FF9381E0809358
:1008B00004108091213E811115C0ECE1FEE310820D
:1008C000A0E0B0E113968C9113978E7F13968C93D2
:1008D00086819781892B41F1E091223EF091233E60
:1008E000099522C0ECE1FEE3A181B281CD01019620
:1008F00081839283C381D481CE01019683839483C3
:1009000088818C93858181508583818192818F71CB
:100910009927892B21F08091213E8111E3CF43E07B
:100920006DE980E090E146D0FF91EF91DF91CF91AA
:10093000BF91AF919F918F917F916F915F914F91F7
:100940003F912F910F900FBE0F901F901895FC01B3
:1009500090911C3E9230E1F3FC5E808108959C01F1
:1009600090911C3E9230E1F33C5EECE1FEE321838A
:10097000328363837483458382E0808344E06DE93E
:1009800080E090E117D0E0E0F0E183818160838333
:1009900080E00895CF93DF931F92CDB7DEB76983D0
:1009A00041E050E0BE016F5F7F4FD9DF0F90DF91D4
:1009B000CF910895FC0164BF4083089529E93BEB82
:1009C00046E75FE31ED08FD0CB010895CF93DF932E
:1009D000809141018111FCCFC0E4D1E089E7888397
:1009E00060E070E889E595E4E9DF8A879B8781E02C
:1009F0008A831886198680E0DF91CF91089580E080
:100A000008950E9415050C94B9050E94B20558F08E
:100A10000E94AB0540F029F45F3F29F00C94A20539
:100A200051110C94ED050C94A8050E94CA0568F3B9
:100A30009923B1F3552391F3951B550BBB27AA2797
:100A400062177307840738F09F5F5F4F220F331FD1
:100A5000441FAA1FA9F335D00E2E3AF0E0E832D099
:100A600091505040E695001CCAF72BD0FE2F29D09C
:100A7000660F771F881FBB1F261737074807AB076E
:100A8000B0E809F0BB0B802DBF01FF2793585F4FE3
:100A90003AF09E3F510578F00C94A2050C94ED05B8
:100AA0005F3FE4F3983ED4F3869577956795B795C5
:100AB000F7959F5FC9F7880F911D9695879597F9D0
:100AC0000895E1E0660F771F881FBB1F6217730749
:100AD0008407BA0720F0621B730B840BBA0BEE1F5E
:100AE00088F7E09508950E94D20588F09F5798F006
:100AF000B92F9927B751B0F0E1F0660F771F881F23
:100B0000991F1AF0BA95C9F714C0B13091F00E943C
:100B1000EC05B1E008950C94EC05672F782F882739
:100B2000B85F39F0B93FCCF3869577956795B39563
:100B3000D9F73EF490958095709561957F4F8F4FD2
:100B40009F4F089597F99F6780E870E060E00895EF
:100B50009FEF80EC089500240A94161617061806D5
:100B60000906089500240A941216130614060506B1
:100B70000895092E0394000C11F4882352F0BB0F42
:100B800040F4BF2B11F460FF04C06F5F7F4F8F4FA5
:100B90009F4F089557FD9058440F551F59F05F3FE0
:100BA00071F04795880F97FB991F61F09F3F79F08F
:100BB00087950895121613061406551FF2CF469511
:100BC000F1DF08C0161617061806991FF1CF869593
:100BD0007105610508940895E894BB276627772777
:100BE000CB0197F90895A0E0B0E0E8EFF5E0A6C2E8
:100BF000AE014B5F5F4FFA0161917191AF0180913E
:100C00002F3E9091303E02D0E2E0B1C2ABE0B0E0C6
:100C1000EBE0F6E083C26C017B018A01FC011682E5
:100C20001782838181FFBFC1CE0101963C01F6018D
:100C30009381F70193FD859193FF81917F01882333
:100C400009F4ADC1853239F493FD859193FF81910B
:100C50007F01853221F4B60190E0C0D1E8CF912C1C
:100C6000212C312CFFE1F315D8F08B3279F038F4D8
:100C7000803279F08332A1F4232D20611DC08D32A2
:100C800061F0803369F4232D216016C0832D8260CA
:100C9000382EE32DE4603E2E2AC0F32DF8601DC0EF
:100CA00037FC2DC020ED280F2A3040F08E32B9F4E9
:100CB00036FC75C1232D2064322E19C036FE06C0C5
:100CC0008AE0989E200D1124922E11C0EAE02E9EFB
:100CD000200D1124222EF32DF0623F2E08C08C36F9
:100CE00021F4832D8068382E02C0883641F4F70144
:100CF00093FD859193FF81917F018111B3CF982F4F
:100D00009F7D9554933028F40C5F1F4F9FE3998388
:100D10000DC0833631F0833771F0833509F055C04B
:100D200020C0F801808189830E5F1F4F882483943F
:100D3000912C530112C02801F2E04F0E511CF80112
:100D4000A080B18036FE03C0692D70E002C06FEF55
:100D50007FEFC50138D14C018201F32DFF773F2E83
:100D600015C0280122E0420E511CF801A080B1807C
:100D700036FE03C0692D70E002C06FEF7FEFC50142
:100D800017D14C01F32DF0683F2E820133FC19C0BE
:100D9000822D90E088169906A0F4B60180E290E0DA
:100DA0001DD12A94F5CFF50137FC859137FE81914D
:100DB0005F01B60190E012D121102A9421E0821A3D
:100DC00091088114910479F7E1C0843611F08936D5
:100DD00039F5F80137FE07C0608171818281938106
:100DE0000C5F1F4F08C060817181072E000C880BBB
:100DF000990B0E5F1F4FF32DFF763F2E97FF09C013
:100E000090958095709561957F4F8F4F9F4FF068BB
:100E10003F2E2AE030E0A3011DD1882E861844C061
:100E2000853731F4232D2F7EB22E2AE030E025C005
:100E3000932D997FB92E8F36C1F018F4883579F04B
:100E4000AEC0803719F0883721F0A9C0E92FE061E2
:100E5000BE2EB4FE0DC0FB2DF460BF2E09C034FEC3
:100E60000AC0292F2660B22E06C028E030E005C057
:100E700020E130E002C020E132E0F801B7FE07C017
:100E800060817181828193810C5F1F4F06C06081F8
:100E9000718180E090E00E5F1F4FA301DBD0882EB0
:100EA0008618FB2DFF773F2E36FE0DC0232D2E7F9B
:100EB000A22E891458F434FE0BC032FC09C0832DD5
:100EC0008E7EA82E05C0B82CA32C03C0B82C01C060
:100ED000B92CA4FE0FC0FE01E80DF11D8081803306
:100EE00021F49A2D997EA92E09C0A2FE06C0B394C2
:100EF000B39404C08A2D867809F0B394A3FC10C083
:100F0000A0FE06C0B21480F4280C922C9B180DC0D1
:100F1000B21458F4B60180E290E060D0B394F8CFF8
:100F2000B21418F42B1802C0982C212CA4FE0FC068
:100F3000B60180E390E052D0A2FE16C0A1FC03C02F
:100F400088E790E002C088E590E0B6010CC08A2DE9
:100F5000867851F0A1FE02C08BE201C080E2A7FCBE
:100F60008DE2B60190E03AD0891430F4B60180E306
:100F700090E034D09A94F8CF8A94F301E80DF11DF3
:100F80008081B60190E02AD08110F6CF222009F4AA
:100F90004ECEB60180E290E021D02A94F7CFF60140
:100FA0008681978102C08FEF9FEF2B96E2E1CFC041
:100FB000FC010590615070400110D8F78095909524
:100FC0008E0F9F1F0895FC01615070400190011029
:100FD000D8F7809590958E0F9F1F08950F931F93BC
:100FE000CF93DF93FB01238121FD03C08FEF9FEFA0
:100FF0002CC022FF16C046815781248135814217BB
:10100000530744F4A081B1819D012F5F3F4F20839E
:1010100031838C93268137812F5F3F4F268337831F
:1010200014C08B01EC01FB010084F185E02D0995D2
:10103000892BE1F6D80116968D919C911797019610
:1010400016968D939C931797CE01DF91CF911F91A8
:101050000F910895FA01AA27283051F1203181F12A
:10106000E8946F936E7F6E5F7F4F8F4F9F4FAF4FB0
:10107000B1E03ED0B4E03CD0670F781F891F9A1FC3
:10108000A11D680F791F8A1F911DA11D6A0F711D77
:10109000811D911DA11D20D009F468943F912AE083
:1010A000269F11243019305D3193DEF6CF0108956B
:1010B000462F4770405D4193B3E00FD0C9F7F6CF9C
:1010C000462F4F70405D4A3318F0495D31FD405264
:1010D000419302D0A9F7EACFB4E0A69597958795FA
:1010E00077956795BA95C9F70097610571050895D9
:1010F0009B01AC010A2E0694579547953795279585
:10110000BA95C9F7620F731F841F951FA01D08951C
:10111000DC0128ED209334006C9308952F923F92C8
:101120004F925F926F927F928F929F92AF92BF92F7
:10113000CF92DF92EF92FF920F931F93CF93DF93A3
:10114000CDB7DEB7CA1BDB0BCDBFDEBF09942A8843
:10115000398848885F846E847D848C849B84AA84CB
:10116000B984C884DF80EE80FD800C811B81AA8158
:10117000B981CE0FD11DCDBFDEBFED010895F8942A
:02118000FFCF9F
:10118200204D4F4445206D616E75616C203D2025D8
:0711920064202E2E2E0A003E
:00000001FF
