S015000044454E5F44554F4E475F3330772E7372656323
S113000019C033C032C031C030C02FC031C02DC080
S11300102CC02BC02AC029C028C027C026C025C098
S113002024C023C022C021C020C01FC01EC01DC0C8
S11300301CC005C311241FBECFEFCDBFDFE3DEBF5D
S11300401EE3A0E0BEE3E1E5FFE002C005900D92EF
S1130050A030B107D9F72EE3A0E0BEE301C01D92A2
S1130060A932B207E1F71CD066C7CACFE2D208951D
S11300701F920F920FB60F9211248F938091023E1C
S11300808F5F8093023E81E08093013E8093003E27
S1130090809343018F910F900FBE0F901F9018957E
S11300A0E5DF10D1D3D104D280911F3E863061F0B8
S11300B08091203E883041F0EFE1FEE386E08083CA
S11300C088E081831282138280911A3E863071F017
S11300D080911B3E883051F0EAE1FEE386E08083A4
S11300E088E0818381E08283838314828BE07AD2E7
S11300F086E490E008D380930A3E8F3F19F481E0B0
S11301008093033E8091033E81113CD3C12CD12CBA
S1130110760180910A3E813009F047C02FEFC21A60
S1130120D20AE20AF20A80E5C81683ECD806E10492
S1130130F10458F081E080930B3E0F2EF0E5CF2EB2
S1130140F3ECDF2EE12CF12CF02D80910B3E882373
S113015011F0E7D11BD180910C3E90910D3EA091FE
S11301600E3EB0910F3E0196A11DB11D80930C3E31
S113017090930D3EA0930E3EB0930F3E893B9B405F
S1130180A105B10508F475C010920C3E10920D3E05
S113019010920E3E10920F3E8091480190914901B9
S11301A08093213E9093223E64C08F3F09F061C04A
S11301B020914801309149018091073E9091083E79
S11301C02817390761F18091093E8F5F8093093EBA
S11301D080914801909149018093073E9093083E95
S11301E08091053E9091063E01968093053E909342
S11301F0063E8091043E91E0980F9093043E815016
S1130200823028F440E060E081E06FD008C0943090
S113021030F01092043E41E060E081E066D08091CD
S1130220053E9091063E80329C4160F081E08093CF
S11302300A3E1092053E1092063E61E086E490E08C
S113024085D217C061E081E03DD1811110C0809159
S1130250093E853070F081E080930A3E1092053E9D
S11302601092063E61E086E490E070D202C01092E3
S1130270093EA8954ECF81110BC020B181E090E0DA
S113028002C0880F991F6A95E2F7822B80B90895FE
S1130290813059F424B181E090E002C0880F991FA5
S11302A06A95E2F7822B84B90895823051F428B11B
S11302B081E090E002C0880F991F6A95E2F7822BD3
S11302C088B9089566E080E0D6DF67E080E0D3DF98
S11302D063E081E0D0DF62E081E0CDDF64E080E0D4
S11302E0CADF65E080E0C7DF0895811119C040FFCF
S11302F00BC021B181E090E002C0880F991F6A957C
S1130300E2F7822B81B9089521B181E090E002C027
S1130310880F991F6A95E2F78095822381B9089521
S11303208130C9F440FF0BC025B181E090E002C0E8
S1130330880F991F6A95E2F7822B85B9089525B134
S113034081E090E002C0880F991F6A95E2F78095DA
S1130350822385B908958230C1F440FF0BC029B1CE
S113036081E090E002C0880F991F6A95E2F7822B22
S113037089B9089529B181E090E002C0880F991FDE
S11303806A95E2F78095822389B90895EAE1FEE34C
S11303908281838394818917D1F080931E3E8111D9
S11303A016C0EFE1FEE383818F9382818F938AE30A
S11303B09FE89F938F93F3D2E5D185E090E08093FB
S11303C04801909349010F900F900F900F908091E6
S11303D01C3E8823C9F08091103E882381F08091CF
S11303E0113E882329F040E060E081E07EDF08953B
S11303F081112BC041E060E081E077DF089540E0A7
S113040060E081E072DF089581111FC08091003E99
S1130410882371F080E197E28093213E9093223EFD
S113042040E060E081E061DF81E080931C3E08955C
S11304308091103E882329F041E060E081E055DF9F
S1130440089540E060E081E050DF089560E081E0DD
S113045012DF40E060E081E048DF089581110CC0C4
S113046020B181E090E002C0880F991F6A95E2F7FD
S11304708095822380B90895813061F424B181E0AC
S113048090E002C0880F991F6A95E2F78095822355
S113049084B90895823059F428B181E090E002C013
S11304A0880F991F6A95E2F78095822388B9089589
S11304B061E081E0D3DF61E080E0D0DF61E080E0F3
S11304C0CDDF089581110BC082B190E002C09595F3
S11304D087956A95E2F780FF1CC081E0089581301A
S11304E059F486B190E002C0959587956A95E2F734
S11304F080FF11C081E00895823079F48AB190E0E0
S113050002C0959587956A95E2F780FF08C081E05F
S1130510089580E0089580E0089581E0089580E0E2
S1130520089561E081E0CEDF811111C061E081E0D6
S1130530C9DF8823D9F31092003E80911C3E8823A2
S113054019F010921C3E03C081E080931C3E809100
S11305501C3E882349F040E064E080E0C6DE41E0D0
S113056065E080E0C2DE08C041E064E080E0BDDE1A
S113057040E065E080E0B9DE61E080E0A3DF88234D
S113058061F081E08093113E40E066E080E0ADDE02
S113059041E067E080E0A9DE0AC01092113E41E02C
S11305A066E080E0A2DE40E067E080E09EDE62E09C
S11305B080E088DF882359F081E08093103E40E09A
S11305C063E093DE41E062E081E08FDE0895109203
S11305D0103E41E063E081E088DE40E062E081E0DB
S11305E084DE0895682F70E080E091E06DD480E0AF
S11305F0089580E0089580E00895789480E0089557
S113060080E008C0E82FF0E0E05FFB4F9081986045
S113061090838F5F8830B0F380E008C0E82FF0E06B
S1130620E05DFB4F9081986090838F5F8830B0F3DA
S11306300895E6DFE0DFE1DFBED0DBDF08951F923F
S11306400F920FB60F9211242F933F934F935F9302
S11306506F937F938F939F93AF93BF93CF93DF93C6
S1130660EF93FF9381E0809304108091173E8111F2
S113067015C0E2E1FEE31082A0E0B0E113968C9194
S113068013978E7F13968C9386819781892B41F1E2
S1130690E091183EF091193E099522C0E2E1FEE393
S11306A0A181B281CD01019681839283C381D481DA
S11306B0CE0101968383948388818C9385818150B4
S11306C08583818192818F719927892B21F0809173
S11306D0173E8111E3CF43E06DE980E090E146D01D
S11306E0FF91EF91DF91CF91BF91AF919F918F9146
S11306F07F916F915F914F913F912F910F900FBE1A
S11307000F901F901895FC019091123E9230E1F3E6
S1130710FC5E808108959C019091123E9230E1F339
S11307203C5EE2E1FEE32183328363837483458389
S113073082E0808344E06DE980E090E117D0E0E05E
S1130740F0E183818160838380E00895CF93DF9318
S11307501F92CDB7DEB7698341E050E0BE016F5F01
S11307607F4FD9DF0F90DF91CF910895FC0164BFD3
S11307704083089529E93BEB46E75FE31ED08FD021
S1130780CB010895CF93DF93809141018111FCCF78
S1130790C0E4D1E089E7888360E070E889E595E406
S11307A0E9DF8A879B8781E08A831886198680E03F
S11307B0DF91CF91089580E008950E94F1030C9495
S11307C095040E948E0458F00E94870440F029F496
S11307D05F3F29F00C947E0451110C94C9040C94CD
S11307E084040E94A60468F39923B1F3552391F37A
S11307F0951B550BBB27AA2762177307840738F08C
S11308009F5F5F4F220F331F441FAA1FA9F335D0E8
S11308100E2E3AF0E0E832D091505040E695001C9C
S1130820CAF72BD0FE2F29D0660F771F881FBB1F56
S1130830261737074807AB07B0E809F0BB0B802D34
S1130840BF01FF2793585F4F3AF09E3F510578F060
S11308500C947E040C94C9045F3FE4F3983ED4F3F3
S1130860869577956795B795F7959F5FC9F7880F34
S1130870911D9695879597F90895E1E0660F771F86
S1130880881FBB1F621773078407BA0720F0621B17
S1130890730B840BBA0BEE1F88F7E09508950E9442
S11308A0AE0488F09F5798F0B92F9927B751B0F04C
S11308B0E1F0660F771F881F991F1AF0BA95C9F7E0
S11308C014C0B13091F00E94C804B1E008950C94B2
S11308D0C804672F782F8827B85F39F0B93FCCF365
S11308E0869577956795B395D9F73EF4909580955D
S11308F0709561957F4F8F4F9F4F089597F99F672C
S113090080E870E060E008959FEF80EC0895002493
S11309100A941616170618060906089500240A9460
S113092012161306140605060895092E0394000CE6
S113093011F4882352F0BB0F40F4BF2B11F460FF75
S113094004C06F5F7F4F8F4F9F4F089557FD90589E
S1130950440F551F59F05F3F71F04795880F97FB7F
S1130960991F61F09F3F79F0879508951216130639
S11309701406551FF2CF4695F1DF08C01616170668
S11309801806991FF1CF869571056105089408959D
S1130990E894BB2766277727CB0197F90895A0E051
S11309A0B0E0E4EDF4E0A6C2AE014B5F5F4FFA01A4
S11309B061917191AF018091253E9091263E02D0C4
S11309C0E2E0B1C2ABE0B0E0E7EEF4E083C26C0178
S11309D07B018A01FC0116821782838181FFBFC1DA
S11309E0CE0101963C01F6019381F70193FD8591B7
S11309F093FF81917F01882309F4ADC1853239F4D5
S1130A0093FD859193FF81917F01853221F4B60195
S1130A1090E0C0D1E8CF912C212C312CFFE1F315CB
S1130A20D8F08B3279F038F4803279F08332A1F443
S1130A30232D20611DC08D3261F0803369F4232D94
S1130A40216016C0832D8260382EE32DE4603E2E93
S1130A502AC0F32DF8601DC037FC2DC020ED280FEF
S1130A602A3040F08E32B9F436FC75C1232D20644F
S1130A70322E19C036FE06C08AE0989E200D11243D
S1130A80922E11C0EAE02E9E200D1124222EF32D69
S1130A90F0623F2E08C08C3621F4832D8068382EF6
S1130AA002C0883641F4F70193FD859193FF81914B
S1130AB07F018111B3CF982F9F7D9554933028F4F3
S1130AC00C5F1F4F9FE399830DC0833631F083374A
S1130AD071F0833509F055C020C0F8018081898305
S1130AE00E5F1F4F88248394912C530112C0280158
S1130AF0F2E04F0E511CF801A080B18036FE03C015
S1130B00692D70E002C06FEF7FEFC50138D14C0151
S1130B108201F32DFF773F2E15C0280122E0420EFB
S1130B20511CF801A080B18036FE03C0692D70E02D
S1130B3002C06FEF7FEFC50117D14C01F32DF068B0
S1130B403F2E820133FC19C0822D90E0881699064D
S1130B50A0F4B60180E290E01DD12A94F5CFF5010E
S1130B6037FC859137FE81915F01B60190E012D187
S1130B7021102A9421E0821A91088114910479F7B2
S1130B80E1C0843611F0893639F5F80137FE07C023
S1130B9060817181828193810C5F1F4F08C06081E5
S1130BA07181072E000C880B990B0E5F1F4FF32DDC
S1130BB0FF763F2E97FF09C09095809570956195BB
S1130BC07F4F8F4F9F4FF0683F2E2AE030E0A30104
S1130BD01DD1882E861844C0853731F4232D2F7EED
S1130BE0B22E2AE030E025C0932D997FB92E8F369E
S1130BF0C1F018F4883579F0AEC0803719F0883721
S1130C0021F0A9C0E92FE061BE2EB4FE0DC0FB2D7A
S1130C10F460BF2E09C034FE0AC0292F2660B22E0C
S1130C2006C028E030E005C020E130E002C020E149
S1130C3032E0F801B7FE07C060817181828193813F
S1130C400C5F1F4F06C06081718180E090E00E5FF1
S1130C501F4FA301DBD0882E8618FB2DFF773F2E74
S1130C6036FE0DC0232D2E7FA22E891458F434FE97
S1130C700BC032FC09C0832D8E7EA82E05C0B82C73
S1130C80A32C03C0B82C01C0B92CA4FE0FC0FE01D4
S1130C90E80DF11D8081803321F49A2D997EA92ECF
S1130CA009C0A2FE06C0B394B39404C08A2D86780A
S1130CB009F0B394A3FC10C0A0FE06C0B21480F4E3
S1130CC0280C922C9B180DC0B21458F4B60180E283
S1130CD090E060D0B394F8CFB21418F42B1802C08B
S1130CE0982C212CA4FE0FC0B60180E390E052D0D2
S1130CF0A2FE16C0A1FC03C088E790E002C088E50C
S1130D0090E0B6010CC08A2D867851F0A1FE02C095
S1130D108BE201C080E2A7FC8DE2B60190E03AD0FC
S1130D20891430F4B60180E390E034D09A94F8CF7B
S1130D308A94F301E80DF11D8081B60190E02AD078
S1130D408110F6CF222009F44ECEB60180E290E065
S1130D5021D02A94F7CFF6018681978102C08FEFC4
S1130D609FEF2B96E2E1CFC0FC01059061507040EB
S1130D700110D8F7809590958E0F9F1F0895FC0160
S1130D806150704001900110D8F7809590958E0FB6
S1130D909F1F08950F931F93CF93DF93FB0123812C
S1130DA021FD03C08FEF9FEF2CC022FF16C04681A8
S1130DB05781248135814217530744F4A081B181BE
S1130DC09D012F5F3F4F208331838C932681378190
S1130DD02F5F3F4F2683378314C08B01EC01FB0147
S1130DE00084F185E02D0995892BE1F6D80116964A
S1130DF08D919C911797019616968D939C931797B6
S1130E00CE01DF91CF911F910F910895FA01AA2786
S1130E10283051F1203181F1E8946F936E7F6E5F39
S1130E207F4F8F4F9F4FAF4FB1E03ED0B4E03CD0E7
S1130E30670F781F891F9A1FA11D680F791F8A1FCA
S1130E40911DA11D6A0F711D811D911DA11D20D031
S1130E5009F468943F912AE0269F11243019305DEB
S1130E603193DEF6CF010895462F4770405D4193DC
S1130E70B3E00FD0C9F7F6CF462F4F70405D4A3329
S1130E8018F0495D31FD4052419302D0A9F7EACFF1
S1130E90B4E0A6959795879577956795BA95C9F720
S1130EA000976105710508959B01AC010A2E069413
S1130EB05795479537952795BA95C9F7620F731FCC
S1130EC0841F951FA01D0895DC0128ED2093340094
S1130ED06C9308952F923F924F925F926F927F92FC
S1130EE08F929F92AF92BF92CF92DF92EF92FF9236
S1130EF00F931F93CF93DF93CDB7DEB7CA1BDB0BE2
S1130F00CDBFDEBF09942A88398848885F846E84FF
S1130F107D848C849B84AA84B984C884DF80EE8019
S1130F20FD800C811B81AA81B981CE0FD11DCDBF5B
S10D0F30DEBFED010895F894FFCF31
S1130F3A204D4F4445206D616E75616C203D20251E
S10A0F4A64202E2E2E0A0084
S9030000FC
